{
  "contractName": "RoadToll",
  "abi": [
    {
      "inputs": [
        {
          "internalType": "string",
          "name": "",
          "type": "string"
        }
      ],
      "name": "expDate",
      "outputs": [
        {
          "internalType": "uint16",
          "name": "year",
          "type": "uint16"
        },
        {
          "internalType": "uint8",
          "name": "month",
          "type": "uint8"
        },
        {
          "internalType": "uint8",
          "name": "day",
          "type": "uint8"
        }
      ],
      "stateMutability": "view",
      "type": "function",
      "constant": true
    },
    {
      "inputs": [
        {
          "internalType": "uint16",
          "name": "_year",
          "type": "uint16"
        }
      ],
      "name": "isLeapYear",
      "outputs": [
        {
          "internalType": "bool",
          "name": "",
          "type": "bool"
        }
      ],
      "stateMutability": "pure",
      "type": "function",
      "constant": true
    },
    {
      "inputs": [
        {
          "internalType": "uint8",
          "name": "month",
          "type": "uint8"
        },
        {
          "internalType": "uint16",
          "name": "year",
          "type": "uint16"
        }
      ],
      "name": "monthDays",
      "outputs": [
        {
          "internalType": "uint8",
          "name": "",
          "type": "uint8"
        }
      ],
      "stateMutability": "pure",
      "type": "function",
      "constant": true
    },
    {
      "inputs": [
        {
          "components": [
            {
              "internalType": "uint16",
              "name": "year",
              "type": "uint16"
            },
            {
              "internalType": "uint8",
              "name": "month",
              "type": "uint8"
            },
            {
              "internalType": "uint8",
              "name": "day",
              "type": "uint8"
            }
          ],
          "internalType": "struct RoadToll.Date",
          "name": "date",
          "type": "tuple"
        },
        {
          "internalType": "uint8",
          "name": "_days",
          "type": "uint8"
        }
      ],
      "name": "addDays",
      "outputs": [
        {
          "components": [
            {
              "internalType": "uint16",
              "name": "year",
              "type": "uint16"
            },
            {
              "internalType": "uint8",
              "name": "month",
              "type": "uint8"
            },
            {
              "internalType": "uint8",
              "name": "day",
              "type": "uint8"
            }
          ],
          "internalType": "struct RoadToll.Date",
          "name": "",
          "type": "tuple"
        }
      ],
      "stateMutability": "pure",
      "type": "function",
      "constant": true
    },
    {
      "inputs": [
        {
          "internalType": "string",
          "name": "_plate",
          "type": "string"
        },
        {
          "internalType": "uint16",
          "name": "_year",
          "type": "uint16"
        },
        {
          "internalType": "uint8",
          "name": "_month",
          "type": "uint8"
        },
        {
          "internalType": "uint8",
          "name": "_day",
          "type": "uint8"
        }
      ],
      "name": "payToll",
      "outputs": [],
      "stateMutability": "payable",
      "type": "function",
      "payable": true
    },
    {
      "inputs": [
        {
          "internalType": "string",
          "name": "_plate",
          "type": "string"
        }
      ],
      "name": "checkToll",
      "outputs": [
        {
          "components": [
            {
              "internalType": "uint16",
              "name": "year",
              "type": "uint16"
            },
            {
              "internalType": "uint8",
              "name": "month",
              "type": "uint8"
            },
            {
              "internalType": "uint8",
              "name": "day",
              "type": "uint8"
            }
          ],
          "internalType": "struct RoadToll.Date",
          "name": "",
          "type": "tuple"
        }
      ],
      "stateMutability": "view",
      "type": "function",
      "constant": true
    }
  ],
  "bytecode": "0x608060405234801561001057600080fd5b50610c14806100206000396000f3fe6080604052600436106100555760003560e01c806337c6074a1461005a5780635ca1f10b146100765780637b391f46146100b357806381b2ab20146100f0578063a6f0e5771461012d578063b5fefec11461016a575b600080fd5b610074600480360381019061006f919061085f565b6101a9565b005b34801561008257600080fd5b5061009d600480360381019061009891906108da565b61037a565b6040516100aa9190610a6b565b60405180910390f35b3480156100bf57600080fd5b506100da60048036038101906100d5919061081e565b6104da565b6040516100e79190610a6b565b60405180910390f35b3480156100fc57600080fd5b506101176004803603810190610112919061093f565b61056c565b6040516101249190610abd565b60405180910390f35b34801561013957600080fd5b50610154600480360381019061014f9190610916565b610638565b6040516101619190610a50565b60405180910390f35b34801561017657600080fd5b50610191600480360381019061018c919061081e565b6106ad565b6040516101a093929190610a86565b60405180910390f35b6101b1610715565b83816000019061ffff16908161ffff168152505082816020019060ff16908160ff168152505081816040019060ff16908160ff1681525050660aa87bee538000341015801561020657506618de76816d800034105b156102195761021681600761037a565b90505b6618de76816d800034101580156102365750662aa1efb94e000034105b156102495761024681601e61037a565b90505b662aa1efb94e000034101580156102665750665fec5b60ef800034105b15610279576102768160b661037a565b90505b665fec5b60ef800034106102ec576002816020015160ff161480156102a55750601d816040015160ff16145b80156102ba57506102b98160000151610638565b5b156102d357601c816040019060ff16908160ff16815250505b80600001805180919060010161ffff1661ffff16815250505b806000866040516102fd9190610a39565b908152602001604051809103902060008201518160000160006101000a81548161ffff021916908361ffff16021790555060208201518160000160026101000a81548160ff021916908360ff16021790555060408201518160000160036101000a81548160ff021916908360ff1602179055509050505050505050565b610382610715565b60006103968460200151856000015161056c565b90508284604001510160ff168160ff1611156103cd5782846040018181510191509060ff16908160ff1681525050839150506104d4565b808460400151840103925083602001805180919060010160ff1660ff1681525050600d846020015160ff16141561042a576001846020019060ff16908160ff168152505083600001805180919060010161ffff1661ffff16815250505b61043c8460200151856000015161056c565b90505b8060ff168360ff1611156104bd57808303925083602001805180919060010160ff1660ff1681525050600d846020015160ff1614156104a4576001846020019060ff16908160ff168152505083600001805180919060010161ffff1661ffff16815250505b6104b68460200151856000015161056c565b905061043f565b82846040019060ff16908160ff1681525050839150505b92915050565b6104e2610715565b6000826040516104f29190610a39565b90815260200160405180910390206040518060600160405290816000820160009054906101000a900461ffff1661ffff1661ffff1681526020016000820160029054906101000a900460ff1660ff1660ff1681526020016000820160039054906101000a900460ff1660ff1660ff16815250509050919050565b600060018360ff161480610583575060038360ff16145b80610591575060058360ff16145b8061059f575060078360ff16145b806105ad575060088360ff16145b806105bb5750600a8360ff16145b806105c95750600c8360ff16145b156105d757601f9050610632565b60048360ff1614806105ec575060068360ff16145b806105fa575060098360ff16145b806106085750600b8360ff16145b1561061657601e9050610632565b61061f82610638565b1561062d57601d9050610632565b601c90505b92915050565b60008060048361ffff168161064957fe5b0661ffff161461065c57600090506106a8565b600060648361ffff168161066c57fe5b0661ffff161461067f57600190506106a8565b60006101908361ffff168161069057fe5b0661ffff16146106a357600090506106a8565b600190505b919050565b6000818051602081018201805184825260208301602085012081835280955050505050506000915090508060000160009054906101000a900461ffff16908060000160029054906101000a900460ff16908060000160039054906101000a900460ff16905083565b6040518060600160405280600061ffff168152602001600060ff168152602001600060ff1681525090565b600082601f83011261075157600080fd5b813561076461075f82610b05565b610ad8565b9150808252602083016020830185838301111561078057600080fd5b61078b838284610b6e565b50505092915050565b6000606082840312156107a657600080fd5b6107b06060610ad8565b905060006107c0848285016107f4565b60008301525060206107d484828501610809565b60208301525060406107e884828501610809565b60408301525092915050565b60008135905061080381610bb0565b92915050565b60008135905061081881610bc7565b92915050565b60006020828403121561083057600080fd5b600082013567ffffffffffffffff81111561084a57600080fd5b61085684828501610740565b91505092915050565b6000806000806080858703121561087557600080fd5b600085013567ffffffffffffffff81111561088f57600080fd5b61089b87828801610740565b94505060206108ac878288016107f4565b93505060406108bd87828801610809565b92505060606108ce87828801610809565b91505092959194509250565b600080608083850312156108ed57600080fd5b60006108fb85828601610794565b925050606061090c85828601610809565b9150509250929050565b60006020828403121561092857600080fd5b6000610936848285016107f4565b91505092915050565b6000806040838503121561095257600080fd5b600061096085828601610809565b9250506020610971858286016107f4565b9150509250929050565b61098481610b47565b82525050565b600061099582610b31565b61099f8185610b3c565b93506109af818560208601610b7d565b80840191505092915050565b6060820160008201516109d160008501826109fd565b5060208201516109e46020850182610a1b565b5060408201516109f76040850182610a1b565b50505050565b610a0681610b53565b82525050565b610a1581610b53565b82525050565b610a2481610b61565b82525050565b610a3381610b61565b82525050565b6000610a45828461098a565b915081905092915050565b6000602082019050610a65600083018461097b565b92915050565b6000606082019050610a8060008301846109bb565b92915050565b6000606082019050610a9b6000830186610a0c565b610aa86020830185610a2a565b610ab56040830184610a2a565b949350505050565b6000602082019050610ad26000830184610a2a565b92915050565b6000604051905081810181811067ffffffffffffffff82111715610afb57600080fd5b8060405250919050565b600067ffffffffffffffff821115610b1c57600080fd5b601f19601f8301169050602081019050919050565b600081519050919050565b600081905092915050565b60008115159050919050565b600061ffff82169050919050565b600060ff82169050919050565b82818337600083830152505050565b60005b83811015610b9b578082015181840152602081019050610b80565b83811115610baa576000848401525b50505050565b610bb981610b53565b8114610bc457600080fd5b50565b610bd081610b61565b8114610bdb57600080fd5b5056fea2646970667358221220cf5a252a6b7d226c8b7605d2aa1a24c8bc95d83ac6972e4e8a533f23348648f564736f6c63430007000033",
  "source": "// SPDX-License-Identifier: GPL-3.0\r\npragma solidity ^0.7.0;\r\npragma experimental ABIEncoderV2;\r\n\r\ncontract  RoadToll {\r\n    \r\n    struct Date {\r\n        uint16 year;\r\n        uint8 month;\r\n        uint8 day;\r\n    }\r\n    \r\n    mapping(string => Date) public expDate;\r\n    \r\n    function isLeapYear(uint16 _year) public pure returns (bool) {\r\n        if (_year % 4 != 0) {\r\n            return false;\r\n        }\r\n        if (_year % 100 != 0) {\r\n            return true;\r\n        }\r\n        if (_year % 400 != 0) {\r\n            return false;\r\n        }\r\n        return true;\r\n    }\r\n    \r\n    function monthDays(uint8 month, uint16 year) public pure returns (uint8) {\r\n        if (month == 1 || month == 3 || month == 5 || month == 7 || month == 8 || month == 10 || month == 12) {\r\n                return 31;\r\n        }\r\n        else if (month == 4 || month == 6 || month == 9 || month == 11) {\r\n                return 30;\r\n        }\r\n        else if (isLeapYear(year)) {\r\n                return 29;\r\n        }\r\n        else {\r\n                return 28;\r\n        }\r\n    }\r\n    \r\n    function addDays(Date memory date, uint8 _days) public pure returns (Date memory){\r\n        uint8 mthDays = monthDays(date.month, date.year);\r\n        if (mthDays > date.day + _days){\r\n            date.day += _days;\r\n            return date;\r\n        }\r\n        \r\n        _days = _days + date.day - mthDays;\r\n        date.month ++;\r\n        if (date.month == 13){\r\n            date.month = 1;\r\n            date.year ++;\r\n        }\r\n        \r\n        mthDays = monthDays(date.month, date.year);\r\n        \r\n        while (_days > mthDays){\r\n            _days -= mthDays;\r\n            date.month ++;\r\n            if (date.month == 13){\r\n                date.month = 1;\r\n                date.year ++;\r\n            }\r\n            mthDays = monthDays(date.month, date.year);\r\n        }\r\n        date.day = _days;\r\n        return date;\r\n    }\r\n    \r\n\r\n    function payToll(string memory _plate,uint16 _year ,uint8 _month ,uint8 _day) public payable{\r\n        Date memory date;\r\n        date.year = _year;\r\n        date.month = _month; \r\n        date.day = _day;\r\n        \r\n        if(msg.value >= 0.003 ether && msg.value < 0.007 ether)\r\n            date = addDays(date, 7);\r\n            \r\n        if(msg.value >= 0.007 ether && msg.value < 0.012 ether)\r\n            date = addDays(date, 30);\r\n            \r\n        if(msg.value >= 0.012 ether && msg.value < 0.027 ether)\r\n            date = addDays(date, 182);\r\n        \r\n        if(msg.value >= 0.027 ether){\r\n            if(date.month == 2 && date.day == 29 && isLeapYear(date.year)){\r\n                date.day = 28;\r\n            }\r\n            date.year ++;\r\n        }\r\n        \r\n        expDate[_plate] = date;\r\n    }\r\n    \r\n    function checkToll(string memory _plate) public view returns(Date memory){\r\n        return expDate[_plate];\r\n    }\r\n}",
  "sourcePath": "D:\\Dev_Projects\\Road_Toll_Payment\\contracts\\RoadToll.sol",
  "compiler": {
    "name": "solc",
    "version": "0.7.0+commit.9e61f92b.Emscripten.clang"
  },
  "schemaVersion": "3.0.23",
  "updatedAt": "2021-01-25T05:56:33.574Z",
  "networkType": "ethereum",
  "devdoc": {
    "kind": "dev",
    "methods": {},
    "version": 1
  },
  "userdoc": {
    "kind": "user",
    "methods": {},
    "version": 1
  }
}